:100000000C9414060C943C060C943C060C943C0690
:100010000C943C060C943C060C943C060C943C0658
:100020000C943C060C943C060C94DE1D0C944D1E66
:100030000C943C060C943C060C943C060C943C0638
:100040000C943C060C9421210C943C060C943C0628
:100050000C943C060C943C060C943C060C947F20BB
:100060000C943C060C943C060C943C060C943C0608
:100070000C943C060C943C060C943C060C943C06F8
:100080000C94C9200C943C060C943C060C943C0641
:100090000C943C060C943C060C943C060C943C06D8
:1000A0000C943C060C943C060C943C0600000000AA
:1000B000003E5B4F5B3E3E6B4F6B3E1C3E7C3E1CEE
:1000C000183C7E3C181C577D571C1C5E7F5E1C0034
:1000D000183C1800FFE7C3E7FF0018241800FFE7EB
:1000E000DBE7FF30483A060E2629792926407F05AE
:1000F0000507407F05253F5A3CE73C5A7F3E1C1CC4
:1001000008081C1C3E7F14227F22145F5F005F5F83
:1001100006097F017F006689956A6060606060946F
:10012000A2FFA29408047E040810207E2010080874
:100130002A1C08081C2A08081E101010100C1E0C7F
:100140001E0C30383E3830060E3E0E060000000011
:100150000000005F00000007000700147F147F14F8
:10016000242A7F2A1223130864623649562050003D
:1001700008070300001C2241000041221C002A1C29
:100180007F1C2A08083E0808008070300008080814
:100190000808000060600020100804023E51494534
:1001A0003E00427F400072494949462141494D3352
:1001B0001814127F1027454545393C4A49493141B9
:1001C000211109073649494936464949291E000087
:1001D00014000000403400000008142241141414DC
:1001E0001414004122140802015909063E415D59C8
:1001F0004E7C1211127C7F494949363E41414122D1
:100200007F4141413E7F494949417F090909013EFA
:10021000414151737F0808087F00417F4100204021
:10022000413F017F081422417F404040407F021C33
:10023000027F7F0408107F3E4141413E7F0909094A
:10024000063E4151215E7F09192946264949493216
:1002500003017F01033F4040403F1F2040201F3FDC
:100260004038403F63140814630304780403615961
:10027000494D43007F4141410204081020004141A3
:10028000417F04020102044040404040000307084F
:100290000020545478407F2844443838444444284B
:1002A000384444287F385454541800087E090218F2
:1002B000A4A49C787F0804047800447D400020407A
:1002C000403D007F1028440000417F40007C0478BE
:1002D00004787C080404783844444438FC18242406
:1002E0001818242418FC7C08040408485454542486
:1002F00004043F44243C4040207C1C2040201C3C03
:100300004030403C44281028444C9090907C4464F9
:10031000544C44000836410000007700000041368C
:10032000080002010204023C2623263C1EA1A16112
:10033000123A4040207A3854545559215555794144
:100340002154547841215554784020545579400C1B
:100350001E527212395555555939545454593955FC
:100360005454580000457C410002457D420001453F
:100370007C40F0292429F0F0282528F07C545545AC
:10038000002054547C547C0A097F4932494949323F
:100390003248484832324A4848303A4141217A3A54
:1003A00042402078009DA0A07D39444444393D401E
:1003B00040403D3C24FF2424487E4943662B2FFCCB
:1003C0002F2BFF0929F620C0887E09032054547979
:1003D000410000447D413048484A32384040227A4A
:1003E000007A0A0A727D0D19317D2629292F2826C7
:1003F0002929292630484D402038080808080808CF
:100400000808382F10C8ACBA2F102834FA00007B27
:10041000000008142A142222142A1408950022002D
:1004200095AA005500AAAA55AA55AA000000FF00E7
:10043000101010FF00141414FF001010FF00FF1024
:1004400010F010F0141414FC001414F700FF000056
:10045000FF00FF1414F404FC141417101F10101FD5
:10046000101F1414141F00101010F0000000001FC3
:10047000101010101F10101010F010000000FF10CE
:100480001010101010101010FF10000000FF1400CA
:1004900000FF00FF00001F10170000FC04F41414FC
:1004A0001710171414F404F40000FF00F7141414C8
:1004B00014141414F700F7141414171410101F1048
:1004C0001F141414F4141010F010F000001F101F6B
:1004D0000000001F14000000FC140000F010F010D9
:1004E00010FF10FF141414FF141010101F00000050
:1004F00000F010FFFFFFFFFFF0F0F0F0F0FFFFFF54
:100500000000000000FFFF0F0F0F0F0F38444438AA
:10051000447C2A2A3E147E02020606027E027E02E5
:1005200063554941633844443C04407E201E200604
:10053000027E020299A5E7A5991C2A492A1C4C7241
:1005400001724C304A4D4D303048784830BC625AC8
:10055000463D3E494949007E0101017E2A2A2A2A58
:100560002A44445F444440514A444040444A514034
:100570000000FF0103E080FF000008086B6B0836F5
:1005800012362436060F090F060000181800000066
:100590001010003040FF0101001F01011E00191D55
:1005A0001712003C3C3C3C00000000000601150115
:1005B000260137014A015D01720188019F01B801DE
:1005C000D201EE010B022A024B026E029302BA0222
:1005D000E40210033F037003A403DC031704550473
:1005E0009704DD0427057505C80520067D06E0068D
:1005F0004907B8072D08A9082D09B9094D0AEA0AC3
:10060000900B400CFA0CC00D910E6F0F5A10531145
:100610005B1272139A14D41520178018F519801BD9
:10062000231DDE1EB420A622B524E4263429A72BE0
:10063000402E0031EA330037453ABC3D68414C4515
:100640006B49C84D68524F57805C006210111213FD
:10065000151617181A1C1D1F21232527292C2E318A
:1006600034373A3E4145494E52575C62686E757B5D
:10067000838B939CA5AFB9C4D0DCE9F700000002DE
:1006800000090F0000030401000C0000000000003E
:100690000000000000000000000000080B00020243
:1006A00002000009040000010202000005240010FD
:1006B00001052401010104240206052406000107A6
:1006C00005810310004009040100020A0000000730
:1006D00005020240000007058302400000040309F0
:1006E0000412010002EF02014041233680000101A3
:1006F00002030141726475696E6F204C4C430041E6
:10070000726475626F790000000000240027002ADF
:10071000002D003000D5F08D14A1C881CFD9F1AFE4
:10072000200014021302120215020702080204013B
:100730000C0106010048F21CA701A71CF5200001CE
:10074000010101010101010888527CFC6C5AA908D1
:1007500000000000000000010002801056383874CC
:1007600005200000000000010000000010820420AD
:1007700000920040000000000000000000702C7F8C
:100780002C70702C7C2C7000000080C0C0E06030A9
:100790001008884838389858180C0C040446E2F2BF
:1007A00072020202010101010101020202020202BF
:1007B000020206040484C44808081010203050982F
:1007C0008848683010000000183E3F7F3F39B8F875
:1007D00078783C3D1B737A7A4E7E7C7878607F7F98
:1007E00002727A7E4E7C7C786262663E1C387C6641
:1007F000420270783E06727C7C4C7C7D71477F7330
:10080000061E7C786000000031913C0010913B0096
:1008100010913900109137001091390010913B0070
:1008200010913C0010913E00109140001091410049
:100830001091430010914400108100219143001059
:100840009141001091400010913E0010913C001029
:10085000913E001091400010914100109143001012
:1008600091450010914700109148001091490010E7
:10087000810021914800109147001091450010918E
:100880004300109145001091480010914A001091CA
:100890004C0010914F001091500010810021914F99
:1008A0000010914D0010914C0010914A0010914899
:1008B0000010914A0010914D0010914F001091517D
:1008C0000010915300109154001091550010915256
:1008D0000010810032F00026914500109143001075
:1008E0009141001091400010913E0010913C001089
:1008F000914500109143001091410010914000106B
:10090000913E0010913C0010913C0010913E00106F
:10091000914000109141001091430010914500104A
:100920009147001091480010914A0010914C00101E
:10093000914D0010914F00109151001091530010F3
:100940009154001091510010914F0010914D0010E2
:10095000914C0010914A0010914C0010914D0010E4
:10096000810032F00100915300109152001091501B
:100970000010914E0010914C0010914B00109149C5
:100980000010914700109152001091500010914EAC
:10099000001091420042914700429142004291472B
:1009A0000042914B004291470042914B0042914ED0
:1009B0000042914B0042914E004291530042800010
:1009C0008591420042914700429142004291470086
:1009D00042914B004291470042914B0042914E00A0
:1009E00042914B0042914E0042915300428000855B
:1009F000914B004291490021914A002191490021E7
:100A0000914A002191490021914A002191490021F8
:100A1000914A002191490021914A002191490021E8
:100A2000914A002191490021914A002191490021D8
:100A3000914A00219147001091490010914B0010FC
:100A4000914C0010914E00109150001091520010E6
:100A5000915300109147001091490010914B0010E4
:100A6000914C0010914E00109150001091520010C6
:100A7000915300109147001091490010914B0010C4
:100A8000914C0010914E00109150001091520010A6
:100A900091530010810200F00408020110408040D0
:100AA0001020408040800802040180402010020194
:100AB0001080102040402000000000250028002B5E
:100AC000002E0031000404040404030405020202A1
:100AD00002040302020202060606060606040402D7
:100AE00002020404030100223F20001F20201F00F7
:100AF0003F09090600000000003F04043F003F00DA
:100B00001E212138003F04043F001E1E001F1D1738
:100B1000151F061F171D1F1C011F1F1F071F001F6A
:100B20000017151D001C1C1D1517001C1C001C1C8B
:100B300015151F001C1C001C1C1F151F001C1C0071
:100B40001C1C00143C341A1800000C2C1E18200029
:100B50000022442A16381110000A24001200141E24
:100B60000C1E141A0E0C0E1A0A0706070A000000C3
:100B70000000000000000000000000000000000075
:100B8000000000000000141E0C1E14021E0E070CB4
:100B9000041E1F0606080F1E1602000A1F0E1B0267
:100BA0001E0F0D08040F1F0C0C080F0E1C06050F5E
:100BB000060F05061C0E0F080C0C1F0F04080D0F66
:100BC0001E021B0E1F0A0002161E0F0806061F1E1D
:100BD000040C070E1E02060C1E0C0604080E1C0652
:100BE00000101C1C1E00141D0E0800151F0E040012
:100BF00005170E02000107070F04020E070C0C0672
:100C00000F060C0C070E02040F07070100020E1757
:100C10000500040E1F1500080E1D14001E1C1C10DC
:100C200000061C0E0804492211241FBECFEFDAE093
:100C3000DEBFCDBF12E0A0E0B1E0E4E9F3E602C020
:100C400005900D92A632B107D9F728E0A6E2B2E0EE
:100C500001C01D92A537B207E1F716E0C4E1D6E066
:100C600004C02197FE010E948430C331D107C9F727
:100C70000E94D9220C94C8310C9400004F925F92CC
:100C80006F927F928F929F92AF92BF92CF92DF929C
:100C9000EF92FF920F931F93CF93DF9330E0F90110
:100CA000E80FF91FF7FD9FC0803891050CF09BC03D
:100CB000FB01E00FF11DF7FD96C0603471050CF0EB
:100CC00092C0DB0177FF04C0AA27BB27A61BB70B86
:100CD000A770BB27FB0177FD3796C3E0F595E79535
:100CE000CA95E1F777FF07C0319768E070E0EB0144
:100CF000CA1BDB0BDE01802E869486948694912C91
:100D0000077019F0DFEF8D1A9D0ABF01481B590BC0
:100D10008F011695102F002717950795080F191F9B
:100D2000860E971EE8E0F0E03F016A1A7B0A8616FD
:100D3000970609F458C06830710509F454C0F801E9
:100D4000E058FF4F5F016F3FFFEF7F070CF442C099
:100D5000E801C95ADB4F7E01EC01D7FD2DC06F3F82
:100D6000760709F43DC0FE01E40FF51FE491F0E0C1
:100D70006F010A2E01C0CC0C0A94EAF7F701D4885F
:100D8000CD28C48A1097C1F067307105A9F0FE0123
:100D9000E40FF51FE4916701C01AD10ACA0CDB1CED
:100DA000F0E02F01062C02C0559447940A94E2F714
:100DB000F60154884528448A2196FFEFEF1AFF0A6E
:100DC000FE01E81BF90BE217F30724F4C038D10544
:100DD00009F0C3CF6F5F7F4F420F531F8501A7CF2D
:100DE0001097A9F6E9CFDF91CF911F910F91FF9056
:100DF000EF90DF90CF90BF90AF909F908F907F90BB
:100E00006F905F904F9008952AE0289FF001299FEE
:100E1000F00D1124E60FF71FEE0FFF1FE35FFC4FED
:100E20008FEF9FEF918F808F80918D0390918E0334
:100E3000019790938E0380938D0318161906E4F59D
:100E40008091890390918A036817790791F4FB01D7
:100E5000EE0FFF1FEB5FFC4F85E090E020A131A17A
:100E600037FF25C0019774960097C1F76F5F7F4FDA
:100E7000EECF80918B0390918C0368177907E1F492
:100E8000FB01EE0FFF1FEB5FFC4F85E090E020A120
:100E900031A137FD05C070938C0360938B030895D7
:100EA00001977496009799F761507109E9CF709393
:100EB0008A0360938903089508958F929F92AF9259
:100EC000BF92CF92DF92EF92FF92CF93DF93EC012C
:100ED00081E08093B402B12CA12C60E072E18AE73A
:100EE00090E0A5019E010E94CF2D69017A0181E069
:100EF000C81AD108E108F10891E0C114D10481E0D9
:100F0000E806F10484F068E478EE81E090E0A50161
:100F10009E010E94CF2D69017A0181E0C81AD10893
:100F2000E108F10893E080918100887F892B80930C
:100F300081009E01220F331FA4E1B0E00E94232E06
:100F400028EE33E040E050E00E94012ED09289006C
:100F5000C09288002093B0023093B1024093B20255
:100F60005093B30280916F00826080936F00DF9195
:100F7000CF91FF90EF90DF90CF90BF90AF909F9078
:100F80008F9008952FB7F89483E08093E9009091B3
:100F9000E800892F807295FF04C09091F20080E4F0
:100FA000891B2FBF0895FC018091AD02882311F1A8
:100FB0003FB7F89482E08093E9002091F200822FFD
:100FC00090E01816190614F481E090E0882339F0B7
:100FD000289844E64093AC024091F10040832223DC
:100FE00039F02091F200211103C02BE62093E80094
:100FF0003FBF08958FEF9FEF08953F924F925F920A
:101000006F927F928F929F92AF92BF92CF92DF9218
:10101000EF92FF920F931F93CF93DF935C016A01CE
:101020007B0105E022E04AE05BE0BC018EE790E056
:101030000E943E06CBE7D0E09AE0492E512C612C6D
:10104000712CC114D104E104F104D1F422E04AE08E
:101050005BE0B5018BE790E00E943E06DF91CF9107
:101060001F910F91FF90EF90DF90CF90BF90AF90C6
:101070009F908F907F906F905F904F903F900895DA
:10108000C701B601A30192010E94012E322E832EC8
:10109000942E152F660F771FAB01465F544F05E066
:1010A00022E0B501CE010E943E06C32CD82CE92CCB
:1010B000F12E2397C114D104E104F10409F7CECF36
:1010C00080914D0281110DC082E08093490284E03D
:1010D00080934A0210924C0210924B0281E080935E
:1010E0004D0289E492E00895409134025091350216
:1010F000209132023091330242175307B4F4909199
:10110000E8009570E1F39091E80092FD19C080939A
:10111000F100809134029091350201968F739927E6
:10112000892B19F48EEF8093E8008091340290911E
:1011300035020196909335028093340281E0089540
:1011400080E00895DF92EF92FF920F931F93CF9369
:10115000DF93D82E8A01EB017B01E40EF51ECE153C
:10116000DF0559F0D7FE12C0FE0184910E94740879
:1011700021968111F4CF0FEF1FEFC801DF91CF91BE
:101180001F910F91FF90EF90DF9008958881EECF2F
:101190000F931F93CF93DF931F92CDB7DEB782E0FB
:1011A000898342E450E06BE976E080E80E94A2087F
:1011B0000E946008DC0112960D911C910115110529
:1011C00089F0D801ED91FC910280F381E02DBE0100
:1011D0006F5F7F4FC801099597FD04C0F801008536
:1011E0001185ECCF89810F90DF91CF911F910F91E5
:1011F0000895615030F02091F100FC0120830196A8
:10120000F8CF289884E68093AC020895AF92BF92FD
:10121000CF92DF92EF92FF920F931F93CF93DF93C2
:101220006C017B018B01040F151FEB015E01AE18F1
:10123000BF08C017D10759F06991D601ED91FC9113
:101240000190F081E02DC6010995892B79F7C50140
:10125000DF91CF911F910F91FF90EF90DF90CF9092
:10126000BF90AF900895CF93DF931F92CDB7DEB7B5
:101270006983DC01ED91FC910280F381E02D41E076
:1012800050E0BE016F5F7F4F09950F90DF91CF91C6
:10129000089583E08093E9008091F200882319F09B
:1012A0008AE38093E80008950E94C20790E00895C1
:1012B000CF93DF931F92CDB7DEB7FC018485958570
:1012C00097FD08C02FEF3FEF358724870F90DF9100
:1012D000CF910895CE0101960E94D307019719F48A
:1012E000898190E0F3CF8FEF9FEFF0CF0F931F93A3
:1012F000CF93DF931F92CDB7DEB78C01FC018485BD
:10130000958597FF0BC0CE0101960E94D3070197E8
:1013100071F4898190E0F80195878487F8018485CC
:1013200095850F90DF91CF911F910F9108958FEFC9
:101330009FEFF1CFFC018485958597FD0BC09FB78A
:10134000F89482E08093E9008091F2009FBF90E0E2
:10135000019608959FB7F89482E08093E900809108
:10136000F2009FBF90E00895282F30E0F901E45883
:10137000F94F9491F901E856F54F84912B53354F6D
:10138000F9012491222309F430C09923E9F0915006
:101390009F30D0F4E92FF0E0E053F64F0C94843006
:1013A000FE09020ADF09F609FA09E409E409E40979
:1013B000050A0B0A0F0A130A190AE4091D0A90917B
:1013C00080009F7790938000E22FF0E0EE0FFF1FE8
:1013D000E954F54FA591B4919FB7F894EC91611140
:1013E00032C080958E238C939FBF0895909180008A
:1013F0009F7DE8CF90918000977FE4CF94B59F7751
:1014000094BDE2CF94B59F7DFBCF909190009F77E4
:1014100090939000D9CF909190009F7DF9CF9091BB
:101420009000977FF5CF9091C0009F779093C00078
:10143000CBCF9091C0009F7DF9CF9091C200977F54
:101440009093C200C1CF8E2BCECFCF93DF9390E08D
:10145000FC01E856F54F24918B53954FFC01849184
:101460008823C9F090E0880F991FFC01E95FF84FCD
:10147000A591B491FC01E954F54FC591D491611146
:101480000DC09FB7F8948C91209582238C9388810E
:10149000282328839FBFDF91CF910895623051F4B4
:1014A0009FB7F8943C91822F809583238C93E88199
:1014B0002E2BEFCF8FB7F894EC912E2B2C938FBF60
:1014C000EACF1F93CF93DF93182FEB0161E00E94C7
:1014D000250A209739F460E0812FDF91CF911F9189
:1014E0000C94B409CF3FD10511F461E0F5CFE12FA1
:1014F000F0E0E458F94FE491E150EF3008F07FC09C
:10150000F0E0EB57F54F0C948430940A9C0AA10A42
:10151000AB0AB50AFF0AFF0AFF0ABF0AC90AD30AC3
:10152000DD0AEA0AFF0AF20A84B5806884BDC7BDF5
:10153000DF91CF911F91089584B5806284BDC8BDAD
:10154000F7CF80918000806880938000D0938900DD
:10155000C0938800EDCF80918000806280938000EE
:10156000D0938B00C0938A00E3CF80918000886085
:1015700080938000D0938D00C0938C00D9CF809150
:101580009000806880939000D0939900C093980059
:10159000CFCF80919000806280939000D0939B0089
:1015A000C0939A00C5CF809190008860809390008E
:1015B000D0939D00C0939C00BBCF8091C0008068F9
:1015C0008093C0008091C0008F7B8093C000C09347
:1015D000CF00AECF8091C00080628093C000C093E6
:1015E000D000A6CF8091C20088608093C200809115
:1015F000C2008B7F8093C200C093D20099CFC038C5
:10160000D1050CF072CF67CF3FB7F89480912E02CE
:1016100090912F02A0913002B091310226B5A89B83
:1016200005C02F3F19F00196A11DB11D3FBFBA2F74
:10163000A92F982F8827BC01CD01620F711D811D34
:10164000911D42E0660F771F881F991F4A95D1F7B9
:1016500008958F929F92AF92BF92CF92DF92EF92B6
:10166000FF924B015C010E94040B6B017C010E9404
:10167000040B6C197D098E099F09683E7340810532
:101680009105A8F321E0821A9108A108B10888EE1B
:10169000C80E83E0D81EE11CF11C81149104A10442
:1016A000B10429F7FF90EF90DF90CF90BF90AF90FB
:1016B0009F908F9008958F929F92AF92BF92CF92FA
:1016C000DF92EF92FF920F931F93CF93DF936C0102
:1016D0007B018A0180910B01882309F45CC0809111
:1016E000AD02882309F457C08091380280FF05C0FD
:1016F0008091E00082608093E000E801B12C8AEFE5
:10170000A82E93E0892E2AE3922E209711F4BB2075
:10171000D9F10E94C20781110AC0AA94AA20D9F166
:1017200061E070E080E090E00E94290BEECF8C1722
:101730001D0611F00CF08C2F9FB7F8948092E900F1
:101740002091E80025FD02C09FBFDFCF282F30E0A9
:10175000C21BD30BF701815020F041914093F1005F
:10176000FACFE20EF31EBB2021F09092E800B12CDC
:10177000EBCF8091E80085FDE7CF9092E800BB2495
:10178000B394209709F3F3CF5D9884E680933702F2
:10179000101611063CF081E090E0F60193838283FD
:1017A00010E000E0C801DF91CF911F910F91FF90F1
:1017B000EF90DF90CF90BF90AF909F908F90089563
:1017C0004FB18CB123B190E08095909533E0959521
:1017D00087953A95E1F7887030E0209530953595FA
:1017E0002795359527952470822B942F9095907F7F
:1017F000892B0895CF92DF92EF92FF920F931F9360
:10180000CF93E82FF0E0EC51F54FC491E62FF0E0D4
:10181000603398F5E45BF94FE4910E2F10E0F12C62
:10182000E12C60E074E284EF90E0A70198010E944F
:10183000CF2D215031094109510991E02115310580
:1018400081E0480751056CF060E970ED83E090E0BD
:10185000A70198010E94CF2D21503109410951095A
:1018600093E0C13089F0C330F9F0CF911F910F910F
:10187000FF90EF90DF90CF900895EE0FFF1FE45B95
:10188000FA4F05911491CBCF80918100887F892BED
:1018900080938100309389002093880080916F00AD
:1018A000826080936F00E1CF80919100887F892BC7
:1018B00080939100309399002093980010932C020C
:1018C00000932B0281E080932A0280917100826054
:1018D00080937100CACFE82FF0E0EC51F54FE4910E
:1018E000E13019F0E33089F0089580916F008D7F29
:1018F00080936F0080915802E0915902F0915A0252
:101900009081809589238083089510922A02809186
:101910005502E0915602F0915702F2CFCF93DF9338
:1019200090915B02923081F0C82FE92FF0E0EC51EA
:10193000F54FD4919F5F90935B0261E00E94250A6E
:10194000D13029F0D33049F1DF91CF910895109231
:1019500080001092810080918100886080938100D6
:10196000809181008160809381008C2F90E0FC0148
:10197000EB53F54FE491F0E0EE0FFF1FE954F54F04
:101980002591349130935A02209359028856954FED
:10199000FC01849180935802D7CF1092900010924E
:1019A00091008091910088608093910080919100D6
:1019B0008160809391008C2F90E0FC01EB53F54FF8
:1019C000E491F0E0EE0FFF1FE954F54F25913491BB
:1019D00030935702209356028856954FFC0184910C
:1019E0008093550280915B02882321F06CE380E0B4
:1019F0000E94FA0B80E0DF91CF910C946B0CE09188
:101A00004502F0914602BF016F5F7F4F709346021F
:101A1000609345022491922F907F822F8F7090388F
:101A200019F40E946B0CEBCF903981F43296F0934D
:101A30004602E0934502FB01649190915B02891795
:101A4000F0F667FDDCCF0E94FA0BD9CF903E49F447
:101A500080914702909148029093460280934502FC
:101A6000CECF903F19F41092AE02089597FDC7CFE4
:101A70003296F0934602E0934502FB016491A091F7
:101A80002B02B0912C02322F262F0E94232E6C5055
:101A90007E4F8F4F9F4F28EE33E040E050E00E9492
:101AA000012E209326023093270240932802509360
:101AB00029028091260290912702A0912802B091DC
:101AC0002902892B8A2B8B2B61F481E090E0A0E026
:101AD000B0E08093260290932702A0932802B0934F
:101AE00029020895E4E6F0E08081877F8083E5E6BF
:101AF000F0E08081877F808381E08093AF0208954A
:101B000060387105E8F440345105D0F4342F36952F
:101B100036953695A0E83A9FF0011124E60FF71F9D
:101B2000E80FF91F3489CA018770992741E050E016
:101B300001C0440F8A95EAF7222319F0432B448B06
:101B4000089540954323FBCFDF92EF92FF920F93CE
:101B50001F93CF93DF937C01D22E8B01040F111DB5
:101B6000EB0177FF02C0D0E0C0E0C80101341105ED
:101B700014F080E490E0C817D9074CF42D2DAE0185
:101B8000B70187E594E00E94800D2196EECFDF91AA
:101B9000CF911F910F91FF90EF90DF9008952F92BA
:101BA0003F924F925F926F927F928F929F92AF92ED
:101BB000BF92CF92DF92EF92FF920F931F93CF933A
:101BC000DF934C0174E0959487947A95E1F7D0E027
:101BD000C0E0D12CC12C16E0E0901F03F090200350
:101BE000EC0CFD1CA0908903B0908A0315012C0E0B
:101BF0003D1E220C331C712C612C24014A0C5B1CF1
:101C000093012A0D3B1D80918B0390918C038217C9
:101C100093070CF444C0129FC001139F900D112430
:101C200020911D0330911E03820F931F4496F301F0
:101C3000EE0FFF1FE20DF31DEB5FFC4F20A131A162
:101C40002115310549F037FD03C02430310564F01A
:101C50008FEF681A780AD4CF05E025E046ED5BE007
:101C6000B7010E943E06F4CF9201260D371D237066
:101C700033272230310531F02330310529F422E0B9
:101C800030E002C030E020E065E0629FA001639F89
:101C9000500D1124425A544F05E025E0E1CF85E074
:101CA000C80ED11C2A96C233D10509F095CFCBE9D5
:101CB000D3E015E0E991F991309731F12681378130
:101CC0008481958197FF02C081509F4F792F770FB4
:101CD000770B692F8281938197FF02C081509F4FBC
:101CE000892F990F990B449640815181452B09F01A
:101CF00071C0129FA001139F500D11244A52544FDE
:101D000005E025E00E943E0683E0CF3AD80791F631
:101D1000CFEAD3E00FE414E08A819B8197FF02C0F1
:101D200081509F4F692F792F770F770B1616170663
:101D300074F48881998197FF02C081509F4F892F49
:101D4000990F990B21E042E044960E94A40D289639
:101D50000C171D0709F7E0919703F091980330974E
:101D600081F0448187E04802A00111244E5B544F6A
:101D7000628173818081918107E027E044960E940F
:101D80003E06E0919903F0919A03309781F04481E7
:101D900089E04802A0011124425E544F62817381A0
:101DA0008081918105E029E044960E943E06DF9102
:101DB000CF911F910F91FF90EF90DF90CF90BF9048
:101DC000AF909F908F907F906F905F904F903F90DB
:101DD0002F900895285F3F4F129FA001139F500D31
:101DE0001124425A544F8CCFEF92FF920F931F93BE
:101DF000CF93DF937B018C01040F111DEC0197FF42
:101E000002C0D0E0C0E0C8010138110514F080E83C
:101E100090E0C817D9074CF421E0A701BE0187E57F
:101E200094E00E94800D2196EECFDF91CF911F911B
:101E30000F91FF90EF9008952F923F924F925F92F3
:101E40006F927F928F929F92AF92BF92CF92DF92CA
:101E5000EF92FF920F931F93CF93DF93CDB7DEB72F
:101E60002E970FB6F894DEBF0FBECDBF5B016A019F
:101E70003E872D87261737070CF001C1E616F706B7
:101E80000CF415C1621773075CF03A2D2B2DAD844D
:101E9000BE843D872E87382F292FC601C32ED22E10
:101EA000AE14BF04A1F5C816D90654F0382F292F57
:101EB0008C159D0514F43C2D2D2D6C01832F922F34
:101EC0000C151D052CF0801791070CF4C801860134
:101ED0008F5F482F401BB501C8012E960FB6F894AE
:101EE000DEBF0FBECDBFDF91CF911F910F91FF904D
:101EF000EF90DF90CF90BF90AF909F908F907F90AA
:101F00006F905F904F903F902F900C94F40E302F75
:101F1000212F8C01832F922F3E2D2F2D7501A32E63
:101F2000B22E9601201B310B38872F834D855E859D
:101F30004E195F095A8749873C01601A710A950159
:101F40002E193F093A832983AC014C195D095C8342
:101F50004B83C5012D853E85821B930B9C878B8708
:101F60002A153B05F1F1215031093E832D834701AC
:101F7000512C412C312C212C8D819E818815990565
:101F8000ACF1C10169857A850E9470309B01200FF8
:101F9000311FC20169817A810E947030600F711F08
:101FA0004F815885240E351E460C571C6217730747
:101FB0001CF4922F9B01692F6F5F462F421BB401C7
:101FC000C9010E94F40E5FEF851A950AD5CF3C2D0A
:101FD0002D2D6C01832F922F3A2D2B2DAD84BE8495
:101FE00075C04D855E855E834D83C1CFC4012D854F
:101FF0003E85821B930B2B813C81829FA001839F96
:10200000500D929F500D11245E834D83C4018E1993
:102010009F09869D7001879DF00C969DF00C112400
:10202000A814B9040CF455C08D819E816B857C8504
:102030000E9470309B012C0D3D1DC70169817A8182
:102040000E947030600F711F4D815E818B819C8179
:10205000480F591F5E834D83E60CF71C6217730708
:102060001CF4922F9B01692F6F5F462F421BB40116
:10207000C9010E94F40E9FEF891A990AD1CF2D85CC
:102080003E85E216F3060CF00BCFE616F7060CF4CD
:102090009ECF302F212F8A016C01832F922F3D85F7
:1020A0002E857E876D875701E32EF22EEECE4D856D
:1020B0005E85E416F5060CF434CF302F212F86010F
:1020C000C32ED22E3E2D2F2DED84FE843D872E87EC
:1020D00028CF2E960FB6F894DEBF0FBECDBFDF918E
:1020E000CF911F910F91FF90EF90DF90CF90BF9015
:1020F000AF909F908F907F906F905F904F903F90A8
:102100002F9008952F923F924F925F926F927F92FD
:102110008F929F92AF92BF92CF92DF92EF92FF92F7
:102120000F931F93CF93DF93CDB7DEB72D970FB6E5
:10213000F894DEBF0FBECDBF6A3069F5FC01EA5EE0
:10214000FB4FDC01A85EBB4F2C9148E0249F90011F
:10215000112440815181240F351F3183208314972E
:102160001D921C922D960FB6F894DEBF0FBECDBF08
:10217000DF91CF911F910F91FF90EF90DF90CF9063
:10218000BF90AF909F908F907F906F905F904F9097
:102190003F902F9008956D3029F39D878C878C5E3A
:1021A0009B4F9A838983FC01808091802C853D859B
:1021B000285E3B4F3C832B8330E8831691040CF060
:1021C00071C0EC85FD85EA5EFB4F6080718040E464
:1021D000641671040CF066C0AB81BC814C9045E084
:1021E0009401449E200D311D1124121613060CF08B
:1021F00059C0242C312C910153E0220F331F5A95E2
:10220000E1F7260D371D121613060CF04BC0649F24
:10221000B001112410E000E0FB01E455FF4FFB8703
:10222000EA87E0E0053029F0EA85FB85E00FF11F41
:10223000E491530198E0592E2E2F30E03E832D83F8
:10224000E170EF83F12CE12CE414D8F4C4018E0D7D
:102250009F1D99878887D12CC12CC41470F4A601C6
:102260004A0D5B1D2F81688579858C859D850E942F
:10227000800D9FEFC91AD90AF0CFAFEFEA1AFA0A18
:10228000E3CFED81FE81F595E7955A94A20CB31C3E
:102290005110D2CF0F5F1F4F820C931C06301105D7
:1022A00009F0BFCFEB81FC812081422F50E0A98152
:1022B000BA818D919C91B6E02B9F800D911D1124C8
:1022C000E981FA8191838083EC85FD85E75EFB4F90
:1022D0002081222309F446CF6AEF64039001659FB1
:1022E000300D112420583F4F281739070CF03ACFF2
:1022F000AC85BD85ED91FC9111970190F081E02DA9
:102300006AE0CD012D960FB6F894DEBF0FBECDBFAB
:10231000DF91CF911F910F91FF90EF90DF90CF90C1
:10232000BF90AF909F908F907F906F905F904F90F5
:102330003F902F900994089590E080E008950F93C6
:102340001F93CF93DF93EC018B0121E044E00E94C7
:10235000A40D21E042E0B801CE010196DF91CF91BA
:102360001F910F910C94A40DCF93DF932EE030E0DA
:1023700030931E0320931D0322E030E030932003AE
:1023800020931F0321E030E03093220320932103A8
:1023900020EE31E08130910511F024EB30E03093F4
:1023A00024032093230325E033E06FEF7FEF50E019
:1023B00040E0FA01EE0FFF1FE20FF31F71A360A3CD
:1023C0004F5F5F4F4A305105A1F72C5E3F4F43E00E
:1023D0002936340761F724E230E030938E032093EE
:1023E0008D0310922C0310922B0310923203109243
:1023F000310321E030E030933E0320933D033093DE
:10240000400320933F0330934203209341033093D2
:1024100044032093430330934603209345033093B2
:1024200048032093470322E030E030935003209389
:102430004F0330935203209351033093540320935E
:10244000530330935603209355033093580320933E
:10245000570330935A032093590330935C0320931E
:102460005B0330935E0320935D03E1E6F3E045E711
:1024700053E023E030E021933193338B228B4E17CE
:102480005F07C9F710928A031092890329E030E0B0
:1024900030938C0320938B038530910534F502969D
:1024A0009093900380938F03109292031092910364
:1024B000109294031092930383E090E0909396031C
:1024C00080939503CBE9D3E089919991009731F0FE
:1024D0000E943A31FE0132971182108283E0CF3A96
:1024E000D80791F7DF91CF91089587E090E0D8CF9A
:1024F000CF93DF93EC01EF96FE01EE0FFF1FEB5F32
:10250000FC4F808D918D0097B9F0FC0120813181C5
:10251000232BA9F420919303309194032150310986
:1025200030939403209393030E943A31CC0FDD1F24
:10253000CB5FDC4F198E188EDF91CF9108952091DB
:1025400091033091920321503109309392032093EB
:102550009103EACF8F929F92AF92BF92CF92DF9278
:10256000EF92FF920F931F93CF93DF93CDB7DEB718
:1025700028970FB6F894DEBF0FBECDBF6A30710545
:1025800008F0C6C02AE0289FF001299FF00D112411
:10259000E60FF71FEE0FFF1FE35FFC4FA08CB18C1F
:1025A00024E0A216B10408F0B3C0EBE9F3E010E0B8
:1025B00000E021913191232B09F0A4C04A017B0155
:1025C0006C0186E290E00E949E30FC011382128230
:1025D00015821482158A148A15861486F801EE0F66
:1025E000FF1FED57FC4F918F808F009709F490C02B
:1025F00045E04C9D90014D9D300D112440911F03ED
:1026000050912003240F351F36E03E9DA0013F9DD1
:10261000500D112460911D0370911E03460F571F2A
:10262000FC01B182A0821282438314822583178227
:1026300016829186808621E030E03587248720E26B
:1026400033E03387228711A210A213A212A2178AA5
:10265000168AD18AC08AF786E6862FEF3FEF35A328
:1026600024A328E0E6E1F1E0DE01119601900D924D
:102670002A95E1F7F501EE0FFF1F21E030E02C0F66
:102680003D1FE20FF31F20813181FC01338B228B30
:102690008AE08C9DF0018D9DF00D1124EE0DFF1D43
:1026A000EE0FFF1FE35FFC4FC801805C9F4F918FCF
:1026B000808FAB28E9F48091930390919403019665
:1026C0009093940380939303C80128960FB6F894CF
:1026D000DEBF0FBECDBFDF91CF911F910F91FF9055
:1026E000EF90DF90CF90BF90AF909F908F90089524
:1026F000809191039091920301969093920380931D
:102700009103E2CF0F5F1F4F0A30110509F051CF3F
:102710000FEF1FEFD9CF2F923F924F925F926F92A0
:102720007F928F929F92AF92BF92CF92DF92EF9261
:10273000FF920F931F93CF93DF93CDB7DEB7C359AB
:10274000D1090FB6F894DEBF0FBECDBFCF57DF4F14
:1027500099838883C158D040CD57DF4F6883C358D1
:10276000D0406A01C057DF4F39832883C059D04019
:102770008F709927C257DF4F99838883CE58D040F6
:10278000892BA9F50E946F2D28E030E040E050E051
:102790000E94CF2D161617061806190644F520912B
:1027A0001D0330911E03809121039091220397FF16
:1027B00045C14091890350918A0366E0649FC0013E
:1027C000659F900D1124820F931F079734F481E0C9
:1027D00090E09093220380932103809121039091B4
:1027E0002203820F931F90931E0380931D030FEA11
:1027F00013E025E033E0C457DF4F39832883CC58FA
:10280000D0404FE4A42E44E0B42ED8011296ED90AF
:10281000FC90BFEFEB16F10449F144F120E030E009
:1028200040E853E4F80164817581868197810E94B4
:1028300003300E94162FD8012D913C911197C901A8
:10284000860F971F8D939C93B0ECEB0EF11CF80153
:10285000F382E282E114F0E4FF0644F0D80111961D
:102860001C921E9213961C921E921297085F1F4F85
:10287000A016B10651F68091230390912403892B71
:1028800029F0CD57DF4F1882C358D040EBE9F3E071
:10289000C657DF4FF983E883CA58D040CA57DF4F85
:1028A00019821882C658D040CC57DF4F198218823F
:1028B000C458D040CF57DF4F28813981C158D0400C
:1028C00023703327C857DF4F39832883C858D04037
:1028D00039E0232E312C412C512CCF57DF4F48812A
:1028E0005981C158D04047705527CE56DF4F598384
:1028F0004883C259D040C657DF4FA881B981CA5812
:10290000D0400D911D91C657DF4FB983A883CA5897
:10291000D0400115110509F4BFC5F801A080B180B0
:10292000F1E0AF16B10409F09CC0D80194968D91E6
:102930009C9197FD96C0880F991FFC01ED57FC4FA5
:10294000208D318D80E4EEE1F1E0DE01AF5BBF4F21
:1029500001900D928A95E1F780E4EEE5F1E0DE0169
:10296000119601900D928A95E1F7F801848595857D
:102970008330910509F4DCC308F076C081309105FD
:1029800009F4B6C0029709F476C2D8011A968D915F
:102990009C918039B1E09B070CF445C50597F8017F
:1029A00093878287C657DF4FE881F981CA58D040A4
:1029B000329700811181F80182859385CA57DF4FD4
:1029C00028813981C658D0402817390734F4CA57AE
:1029D000DF4F99838883C658D040CD57DF4F388169
:1029E000C358D040332309F433C5D8011C968D91C8
:1029F0009C911D970297029708F02AC556968D91D3
:102A00009C915797019657969C938E935697549600
:102A10002D913C9155972115310509F010C5489726
:102A20000CF416C5E1E0F0E05596FC93EE93549754
:102A300094968D919C9197FF0BC5D2C540918B03C5
:102A400050918C0366E0649FC001659F900D112436
:102A5000820F931F8D3491050CF4BFCE8FEF9FEF43
:102A6000B8CE30E020E06ECF8430910509F499C4EF
:102A7000059709F08ACFC857DF4F28813981C85898
:102A8000D040232B09F081CF2089318945E0429F36
:102A9000C001439F900D112420911F03309120030A
:102AA000820F931F148285832685378546E0429FD7
:102AB000C001439F900D112420911D0330911E03EE
:102AC000820F931F128283838681978120853185AF
:102AD000121613060CF09DC4019797838683F801A4
:102AE00086819781892B09F050CF158614864DCFAA
:102AF000C857DF4F28813981C858D040232BA9F40B
:102B0000D8018681978120853185121613060CF035
:102B1000E5C0009739F48FE090E017969C938E9370
:102B2000169703C0019797838683F80166807780A4
:102B30004301880C991C880C991CE1E4F0E0EC0F2F
:102B4000FD1FE80DF91D20E030E040E853E460810E
:102B50007181828193810E9403300E94162FD801D7
:102B60001296ED90FC901397E60EF71E1396FC92CA
:102B7000EE921297E1E0F0E0EC0FFD1FE80DF91D79
:102B800020E030E040E853E46081718182819381EC
:102B90000E9403300E94162FF80124813581620FB4
:102BA000731F75836483F8E06F16710409F0EDCE2E
:102BB000F7FE03C02FEFE20EF11C8F2D9F2D990F12
:102BC000990B77FF02C061507F4FE72EF72EFF0C65
:102BD000FF08E2E0F0E0D8011D96FC93EE931C970D
:102BE000F3E0AF16B10409F0B1C0B601681B790B70
:102BF000072E000C880B990B0E944E2F4B015C0195
:102C0000C057DF4F68817981C059D0406E197F0964
:102C1000072E000C880B990B0E944E2F20E030E00D
:102C200040E850E40E9403300E94162F072E000C4B
:102C3000880B990B0E944E2F9B01AC01C501B4017A
:102C40000E94A42ED80158966D937D938D939C93EA
:102C50005B970E946F2D22E030E040E050E00E9440
:102C6000CF2D672B682B692B91F426E636E646EAD2
:102C70005FE3F801608D718D828D938D0E9403302A
:102C8000D80158966D937D938D939C935B97F80133
:102C9000808C918CA28CB38C20E030E0A901C5011E
:102CA000B4010E94FE2F87FD1BC02DEC3CEC4CECC8
:102CB0005DE3C501B4010E949F2E87FF11C08DEC1A
:102CC0009CECACECBDE3F801808F918FA28FB38FA9
:102CD00080E290E0F80193A382A357CE01961DCF26
:102CE00020E030E0A901C501B4010E949F2E181612
:102CF0007CF02DEC3CEC4CEC5DEBC501B4010E948A
:102D0000FE2F18162CF48DEC9CECACECBDEBDBCF5D
:102D100020E030E040E05FE3C501B4010E94FE2FF7
:102D200018162CF480E090E0A0E0BFE3CCCF20E0C8
:102D300030E040E05FEBC501B4010E949F2E87FFA9
:102D4000C7CF80E090E0A0E0BFEBBDCF64E270E0D1
:102D50009B012E193F0979016EE470E089329105DB
:102D600014F06AE070E0681B790B072E000C880BEA
:102D7000990B0E944E2F4B015C01B701FF0C880B91
:102D8000990B0E944E2F20E030E040E850E40E9472
:102D900003300E94162F072E000C880B990B0E94FF
:102DA0004E2F9B01AC01C501B4010E94A42ED80195
:102DB00058966D937D938D939C935B970E946F2D96
:102DC00022E030E040E050E00E94CF2DF801E080AA
:102DD000F180672B682B692B41F52AE939E949E92C
:102DE0005FE3608D718D828D938D0E940330D801D9
:102DF00058966D937D938D939C935B9790582AE0A2
:102E000037ED43EA5DE3B2E0EB16F10461F12DEC3E
:102E10003CEC4CE45DE30E940330D8015C966D937A
:102E20007D938D939C935F9753CF20E030E040ECEF
:102E30005FE3608D718D828D938D0E940330D80188
:102E400058966D937D938D939C935B97905829E250
:102E50003CE54FE85DE3B2E0EB16F104E1F62DEC62
:102E60003CEC4CEC5DE30E940330F801648F758FFD
:102E7000868F978F2DCFE280F38084819581C8570C
:102E8000DF4FE881F981C858D040EF2B19F5A70131
:102E9000F7FE02C041505F4F452F550F550BB6014D
:102EA000641B750BAB014C3E7FEF57070CF4DCC085
:102EB000463FAFEF5A070CF4DAC04A3051050CF424
:102EC000D9C0443151050CF0D8C049E050E0F801B8
:102ED000578346838115FEE29F070CF0D1C0805CCA
:102EE0009F4FD80115969C938E9314972115310509
:102EF00051F0F901808D918DA28DB38DF801808FF5
:102F0000918FA28FB38FD80158966D917D918D913D
:102F10009C915B97B3E0AB16B10409F0C2C0F80115
:102F200022A133A1121613060CF4B0C020E030E049
:102F300040EC5FE30E94033020E030E040E853E4DF
:102F40000E9403300E94162F6E0D7F1DD80113962C
:102F50007C936E931297D80114968D919C91811554
:102F600090447CF4F8018281938197FF02C08150E4
:102F70009F4F892F990F990B05968D35910508F470
:102F800004CDD8011E962D913C911F9746E0429F9B
:102F9000C001439F900D112420911D0330911E0309
:102FA000820F931F12961C92129713968C9313976D
:102FB000E0E0FBEF1596FC93EE93149728E030E0E9
:102FC00017963C932E931697CD57DF4F3881C358F1
:102FD000D040332309F4DDC120918D0330918E035D
:102FE000253031050CF0D5C155961C921E92549790
:102FF00057961C921E92569740E450E093965C932D
:103000004E939297B601681B790B77FF77C00E94A9
:103010006F2DA20191010E94CF2D0E944E2F20E022
:1030200030E040E05EE30E94033023E333E343E318
:103030005FE30E94322ED80158966D937D938D9355
:103040009C935B97D8018D919C911197892B31F4BA
:103050008FE090E053969C938E93529723E030E05C
:10306000F8013587248791CC46E050E030CF47E027
:1030700050E02DCF48E050E02ACF4AE050E027CF83
:1030800080589F4FF8019583848330CF21503109B8
:1030900033A322A320E030E040EC5FE30E94A42EA3
:1030A0004BCFCE56DF4FE881F981C259D040EF2B8C
:1030B00081F49B01AC01D8015C966D917D918D915D
:1030C0009C915F970E94332EF801608F718F828FE1
:1030D000938F20E030E040E853E4D80158966D919A
:1030E0007D918D919C915B970E9403300E94162FD9
:1030F0006E0D7F1DF801738362832DCF0E946F2DAB
:10310000A20191010E94CF2D0E944E2F20E030E0BD
:1031100040E05EE30E9403302AE939E949E95EE3D1
:103120000E94322EF801608F718F828F938F8ACF29
:10313000E280F380A480B580C857DF4FE881F98131
:10314000C858D040EF2B21F5C701F7FE02C08150CF
:103150009F4F892F990F990B9601281B390BC90195
:103160008C3E3FEF93070CF4C8C0863F4FEF9407A7
:103170000CF4C6C08A3091050CF4C5C044970CF01D
:10318000C5C089E090E0D80117969C938E9316975E
:1031900020E030E040E853E4F801608D718D828DCD
:1031A000938D0E9403300E94162F6E0D7F1DD80153
:1031B00013967C936E93129792968D919C91939710
:1031C000019793969C938E93929797FF2AC077FFCF
:1031D00002C061507F4F672F770F770BC601861BA8
:1031E000970B97FF96C00E946F2DA20191010E943C
:1031F000CF2D0E944E2F20E030E040E05EE30E94A1
:10320000033023E333E343E35FE30E94322EF8010C
:10321000608F718F828F938F80E290E0F80193A38B
:1032200082A3D80114968D919C91A114BEE2BB0695
:103230000CF08BC0805C9F4FF80195838483F8016C
:10324000848195818115904484F4D80112968D91E2
:103250009C9197FF02C081509F4F892F990F990B26
:1032600005968D35910508F490CBF80126853785B4
:1032700046E0429FC001439F900D112420911D0301
:1032800030911E03820F931F1282838320E03BEF55
:103290003583248348E050E057834683CD57DF4F82
:1032A0005881C358D040552309F473C0158A148A35
:1032B000178A168A60E470E073A362A3D601A81B84
:1032C000B90BB7FF4AC00E946F2DA20191010E9465
:1032D000CF2D0E944E2F20E030E040E05EE30E94C0
:1032E000033023E333E343E35FE30E94322EF8012C
:1032F000608F718F828F938FB1CE86E090E043CF45
:1033000087E090E040CF88E090E03DCF8AE090E019
:103310003ACF0E946F2DA20191010E94CF2D0E94F1
:103320004E2F20E030E040E05EE30E9403302AE9C7
:1033300039E949E95EE30E94322ED80158966D932F
:103340007D938D939C935B9767CF80589F4FD80157
:1033500015969C938E93149772CF0E946F2DA201A5
:1033600091010E94CF2D0E944E2F20E030E040E0DE
:103370005EE30E9403302AE939E949E95EE30E94ED
:10338000322ED80158966D937D938D939C935B97C5
:1033900065CEE4E0F0E0D8011D96FC93EE931C9717
:1033A000F4CA8089918945E0489F9001499F300D7A
:1033B000112480911F0390912003280F391F468507
:1033C000578566E0649FC001659F900D1124409170
:1033D0001D0350911E03840F951F12828383448125
:1033E0005581CA0180589F4F9583848397FF02C0FF
:1033F00081509F4F892F990F990B821793070CF4D7
:10340000C4CAF8011386128685E090E09587848708
:10341000BCCA0196803191051CF4978386835FCBEB
:10342000178216825CCB8C32F1E09F070CF4BACA8B
:103430000197D8011B969C938E931A97B3CA21309B
:10344000310509F0BEC0E2E0F0E0C0970CF0C3C067
:10345000F80184859585892BF9F4808991892AE082
:10346000289FF001299FF00D1124D8011E968D91FF
:103470009C911F97E80FF91FEE0FFF1FE35FFC4FB2
:103480008D919C91918F808FCC57DF4F888199814E
:10349000C458D0400E947812CC57DF4FE881F981A0
:1034A000C458D0403196CC57DF4FF983E883C458D5
:1034B000D0403A9709F01FCACA57DF4F2881398197
:1034C000C658D040232B01F18091AF028823E1F050
:1034D0008091AE02811118C0CF57DF4F288139810A
:1034E000C158D040237033274AE0429FC001439F18
:1034F000900D1124CA57DF4F48815981C658D040DA
:10350000840F951F0E945D07CD57DF4F5881C35828
:10351000D040552309F4FCC02091910330919203CF
:1035200080918F0390919003281739070CF0F0C019
:10353000C257DF4F68817981CE58D040672B09F0A0
:10354000E7C00E946F2D28E030E040E050E00E948C
:10355000CF2D672B682B692B09F0DAC0809193037C
:1035600090919403892B09F4A3C00E946F2D28E049
:1035700030E040E050E00E94CF2D9B0121703327C6
:1035800066707727672B09F439C160918B037091BE
:103590008C032115310531F46091890370918A0300
:1035A0002FEF3FEFFB01EE0FFF1FEB58FC4F84E0C6
:1035B00090E0408151814430510508F048C1A90193
:1035C0002BC12230310509F055C0883491050CF427
:1035D0003FCFE3E0F0E0D8015596FC93EE9354978B
:1035E000E1EBF3E0B0E0A0E02081318137FF02C0E1
:1035F00021503F4F232F330F330B232B09F051C0A2
:10360000F801608D718D828D938D5481458123E009
:10361000AA0FBB1F2A95E1F79D0121553C4F790167
:103620002281338137FF02C021503F4F232F330FB8
:10363000330B2E5F3F4FF70110822183FD01EF54C2
:10364000FC4F252F342F37FF02C021503F4F1082EF
:1036500031839D012D543C4F790120E030E040E85A
:103660005EE30E940330D7016D937D938D939C930D
:103670001397EECE2330310509F0EACE803691055E
:103680000CF4E6CE14968D919C91811598420CF025
:10369000DFCE24E030E0F801358B248B84A195A1A6
:1036A000CAC911963896A431B10509F09DCFD0CE84
:1036B0000091950310919603101611060CF055CF4A
:1036C0000150110929F010939603009395034DCFF3
:1036D00084E090E090939603809395030E946F2D71
:1036E00022E030E040E050E00E94CF2D672B682BB5
:1036F000692B09F063C0E5E2F3E081919191892B98
:1037000009F055C0C8010E94BF21882309F42DCFBC
:1037100080919703909198030097A1F0CF57DF4FC6
:1037200028813981C158D04023703327232B51F48D
:10373000DC0114962C9114972F5F24300CF08EC06E
:1037400014962C938091990390919A03009749F0D5
:10375000FC01258136812150310937FD86C0368331
:1037600025838091230390912403181619062CF4C5
:1037700001979093240380932303CD56DF4F0FB618
:10378000F894DEBF0FBECDBFDF91CF911F910F9197
:10379000FF90EF90DF90CF90BF90AF909F908F9071
:1037A0007F906F905F904F903F902F9008950F5FA4
:1037B0001F4F0A30110509F0A0CFD7CE89E090E065
:1037C000C457DF4FA881B981CC58D040D2962D91F3
:1037D0003C91232B09F497CF0197C457DF4FE88121
:1037E000F981CC58D0403297C457DF4FF983E88332
:1037F000CC58D0408F3F980719F7B7CE2115310527
:10380000A1F4EDE4F3E08191919197FD08C04FEFB1
:103810005FEFB90182E090E00E94AA1279CF2F5F9A
:103820003F4F2A30310579F773CFEFE5F3E069E0D8
:1038300070E08081918197FD03C04FEF5FEFEACF89
:103840006150710932976F3F760799F761CF019701
:1038500074978F3F980709F0ACCE5ACF0E943A3147
:1038600010929803109297036DCF0E943A311092F4
:103870009A031092990375CFFC0101900020E9F79B
:103880003197AF01481B590BBC0187E594E00C94BC
:1038900006092F923F924F925F926F927F928F9282
:1038A0009F92AF92BF92CF92DF92EF92FF920F93CF
:1038B0001F93CF93DF93CEE0D0E020E040E470E0B0
:1038C00060E0CE010E94A40D2196C431D105A9F774
:1038D000CCE6D0E020E040E470E060E0CE010E9461
:1038E000A40D2196C237D105A9F708E022E148EFDF
:1038F0005AE070E060E08EE690E00E943E06409163
:103900000D0350910E0370E060E088E090E00E94AB
:10391000FD0722E146EE5AE060E170E08EE690E0BD
:103920000E943E0640910F035091100370E060E04A
:1039300088E190E00E94FD07D0E0C0E010E000E0E8
:103940008091090390910A0308171907DCF421E01C
:1039500043E06DE370E0CE010E94A40D21E044E05D
:103960006BE370E0CE0101960E94A40D21E043E0DC
:103970006DE370E0CE0102960E94A40D0F5F1F4F11
:103980002496DECF60910B0370910C036A317105B0
:103990007CF5D0E0C0E0BBEFEB2EFF24FA9415E0FD
:1039A000D12E05E010E080910B0390910C03C81715
:1039B000D9070CF04FC0CE01B7010E947030D69EDF
:1039C0009001D79E300D1124245C3F4FCE01B801E9
:1039D0000E947030AC01440F551F440F551F841BCB
:1039E000950BB90182589F4F0E949F112196DBCF02
:1039F000072E000C880B990BCEE7D0E0FAE08F2E53
:103A0000912CA12CB12CA50194010E94012ED22E43
:103A1000E32EF42E152F660F771FAB01465F544F30
:103A200005E022E06BE370E0CE010E943E066D2DC2
:103A30007E2D8F2D912F9E01235031096115710527
:103A40008105910509F0A3C06CE370E0CE010497F5
:103A50000E949F11CCE5D2E02CEA222E22E0322EE9
:103A600038E0C32ED12CE12CF12C0FE710E043E11C
:103A7000842E912CA12CB12C54E0452E512C612C7C
:103A8000712C0E946F2DA70196010E94CF2D6230EC
:103A9000710581059105A4F04A815B8157FF02C041
:103AA000495F5F4F93E0559547959A95E1F7698196
:103AB000062E000C770B21E087E594E00E94800D34
:103AC0000E946F2DA70196010E94CF2D62307105D3
:103AD00081059105B4F04A815B8157FF02C0495FBF
:103AE0005F4F83E0559547958A95E1F78981B80145
:103AF000681B710987FD739521E087E594E00E94BA
:103B0000800D28818A819B81820F911D27FD9A95C6
:103B10009B838A83811592408CF00E946F2DA501B2
:103B200094010E94CF2D69831B821A820E946F2DFF
:103B3000A30192010E94CF2D6E5F688324962C16FC
:103B40003D0609F09ECF8091530490915404892B37
:103B500001F510926C0810926B0810926E0810928A
:103B60006D088BEC91E0DF91CF911F910F91FF9049
:103B7000EF90DF90CF90BF90AF909F908F907F900D
:103B80006F905F904F903F902F900C943C1CE901F8
:103B90003ACFDF91CF911F910F91FF90EF90DF907F
:103BA000CF90BF90AF909F908F907F906F905F90DD
:103BB0004F903F902F9008950E94C3311F920F9213
:103BC0000FB60F9211248F939F938091E1009091F3
:103BD000E100937F9093E10083FF0FC01092E90012
:103BE00091E09093EB001092EC0092E39093ED0043
:103BF0001092AD0298E09093F00082FF22C093E013
:103C00009093E9009091F200992319F09AE3909330
:103C1000E80090913702992341F09091370291503A
:103C200090933702911101C05D9A9091AC02992353
:103C300041F09091AC0291509093AC02911101C06F
:103C4000289A84FF18C08091E2008E7E8160809364
:103C5000E2008091E1008F7E8093E1008091380244
:103C60008E7E8061809338029F918F910F900FBE5E
:103C70000F901F90189580FFF7CF8091E2008E7E05
:103C800080618093E2008091E1008E7E8093E1006C
:103C9000809138028E7E8160E5CF1F920F920FB621
:103CA0000F921124CF92DF92EF92FF920F931F9306
:103CB0002F933F934F935F936F937F938F939F9334
:103CC000AF93BF93EF93FF93CF93DF93CDB7DEB75F
:103CD0006C97DEBFCDBF1092E9008091E80083FFB2
:103CE00025C068E0CE0145960E94F90882EF8093D6
:103CF000E8008D8987FF39C09091E80090FFFCCFE4
:103D0000982F907609F034C19E894F89588D2F895C
:103D1000F88C911131C0803861F58091390280931F
:103D2000F1001092F1008EEF8093E8006C960FB6D0
:103D3000F894DEBF0FBECDBFDF91CF91FF91EF9121
:103D4000BF91AF919F918F917F916F915F914F91B3
:103D50003F912F911F910F91FF90EF90DF90CF90A7
:103D60000F900FBE0F901F9018959EEF9093E80054
:103D7000C7CF1092F100D5CF913059F48111D3CF34
:103D80004130510581F6809139028D7F809339024F
:103D9000CACF933049F48111C6CF4130510519F68D
:103DA000809139028260F2CF953041F48091E80031
:103DB00080FFFCCF20682093E300B5CF963009F058
:103DC000A9C00B8D1C8D22E01092E90010923502E3
:103DD00010923402F2122EC010923302109232026C
:103DE0000E94C8081F8299E09983FA8291E09E831D
:103DF00090EA98879AEF99872091340230913502A2
:103E0000275F3F4F3C832B838D831092E9001092F4
:103E1000350210923402109333020093320249E0CB
:103E200050E0BE016F5F7F4F80E00E94A2080E94B9
:103E3000C80879CF10933302009332020E946008C1
:103E4000DC0112960D911C910115110509F451C167
:103E5000D801ED91FC910480F581E02DBE016B5EEF
:103E60007F4FC8010995009709F03EC1F801008510
:103E70001185EACFF3E0FF120EC08F89882309F481
:103E800040C0823061F440E867E08FEF96E00E9426
:103E90008C21811148CF81E28093EB0047CF8130A4
:103EA00029F440E86BE083EF96E0F1CF833099F797
:103EB0000E946008DC011296ED90FC908E010F5F6D
:103EC0001F4F6801E114F10479F0D701ED91FC91E5
:103ED0000680F781E02DB801C7010995080F111D73
:103EE000F701E084F184EECFD8011C92F601019035
:103EF0000020E9F73197BF016C197D0940E0C60148
:103F0000C6CF6DED76E0FB01449150E080E80E9461
:103F1000A20809CF973009F4BECF983021F481E090
:103F20008093F10000CF993009F0FDCE837009F045
:103F3000B2CFE7EAF1E081E031E096E3219122237C
:103F400071F08093E9003093EB00DF0111972C9121
:103F50002093EC009093ED008F5F873079F78EE728
:103F60008093EA001092EA008F898093AD02DBCE45
:103F70008B8D9C8D1092E9001092350210923402C4
:103F80009093330280933202898D811192C08E8981
:103F90009D89913A49F4813209F07DCF47E050E0A4
:103FA00064E071E080E0B3CF913209F074CF8332E6
:103FB00069F48F89988DB0E0A0E080930001909320
:103FC0000101A0930201B0930301ADCE803269F4E8
:103FD0008091E80082FFFCCF67E084E091E00E94DE
:103FE000F9088BEF8093E8009ECE823209F09BCED9
:103FF0008F8980930B01EEEFFFE7859194918B3FC2
:104000009C4D51F1E0E0F8E08091040190910501B0
:10401000A0910601B0910701803B9440A105B10534
:10402000F1F480910B0180FD1AC0EE3F8AE0F807A1
:1040300089F587E797E7918380838091600080937B
:10404000360288E19BE00FB6F894A8958093600053
:104050000FBE9093600067CEEEEFFAE0D5CF80817F
:1040600091818737974709F05ECEA89580916000CF
:104070008861809360008091360280936000EE3FFB
:104080002AE0F20789F08091FE0A9091FF0A91835D
:10409000808349CE808191818737980751F2909330
:1040A000FF0A8093FE0AC5CF1092FF0A1092FE0A03
:1040B0003ACE0E946008DC0112960D911C91011508
:1040C000110509F4E8CED801ED91FC910190F08141
:1040D000E02DBE016B5E7F4FC8010995811123CE93
:1040E000F80100851185EBCF181619060CF41BCECC
:1040F000D2CEF1E0FF12BECE61EE76E004CF1F9289
:104100000F920FB60F9211242F933F938F939F938B
:10411000AF93BF938091410290914202A0914302DC
:10412000B091440230912D0223E0230F2D3758F532
:104130000196A11DB11D20932D0280934102909301
:104140004202A0934302B093440280912E029091C8
:104150002F02A0913002B09131020196A11DB11D34
:1041600080932E0290932F02A0933002B0933102DD
:10417000BF91AF919F918F913F912F910F900FBE63
:104180000F901F90189526E8230F0296A11DB11DD0
:10419000D2CF1F920F920FB60F9211242F933F93FD
:1041A0004F935F936F937F938F939F93AF93BF933F
:1041B000EF93FF9380912A02882349F08091550262
:1041C000E0915602F0915702908189278083809177
:1041D000AE02882329F18091260290912702A091B6
:1041E0002802B0912902892B8A2B8B2BC9F0809150
:1041F000260290912702A0912802B09129020197EE
:10420000A109B1098093260290932702A093280266
:10421000B0932902892B8A2B8B2B11F40E94FF0C5F
:10422000FF91EF91BF91AF919F918F917F916F918E
:104230005F914F913F912F910F900FBE0F901F9064
:1042400018951F920F920FB60F9211248F939F9380
:10425000AF93BF93EF93FF938091B402882309F447
:1042600052C08091B0029091B102A091B202B0917F
:10427000B302892B8A2B8B2BA1F190915802E091EC
:104280005902F0915A028081892780838091B0027F
:104290009091B102A091B202B091B3021816190622
:1042A0001A061B069CF48091B0029091B102A09175
:1042B000B202B091B3020197A109B1098093B00293
:1042C0009093B102A093B202B093B302FF91EF9129
:1042D000BF91AF919F918F910F900FBE0F901F9044
:1042E00018951092B40280916F008D7F80936F00BB
:1042F00080915802E0915902F0915A029081809584
:1043000089238083E3CF90915802E0915902F09184
:104310005A0280818927F5CFEF92FF920F931F9366
:10432000CF93DF93F82E192FE62E042F81E0860F0E
:10433000880F0E94740883E00E947408CF2DD12F4B
:10434000EC0EFD2EF11CCE15DF05B9F007FF13C0F2
:10435000FE0184910E947408182F80E00E94740866
:10436000812321968111EFCFDF91CF911F910F9182
:10437000FF90EF9008958881EDCF81E0F5CF8F9287
:104380009F92AF92BF92CF92DF92EF92FF920F93E4
:104390001F93CF93DF93EC018091890390918A035F
:1043A0009E01281B390B80918B0390918C038C1BF1
:1043B0009D0BAA24A394B12C281739071CF4AA2416
:1043C000AA94BA2CA501BE0190E080E00E94AA1236
:1043D0008C0180E017FD50C06E0121E0C21AD108A7
:1043E000CE01880F991FFC01E95CFC4F4F01F12CB5
:1043F000E12C2196CC15DD052CF1F40181919191F0
:104400004F010197C1F4A501B60181E090E00E943F
:10441000AA1297FD17C0880F991FFC01ED57FC4F9A
:10442000008CF18DE02D15A304A3EA94EF2839F058
:10443000EE24E394F12C2FEFC21AD20ADBCF92E0E4
:10444000E92EF12C000F111FF801ED57FC4F008CE5
:10445000F18DE02D82E090E095A384A38EE190E0C1
:1044600032E0E316F10429F0EA94EF2821F484E124
:1044700090E0938B828B81E0DF91CF911F910F9120
:10448000FF90EF90DF90CF90BF90AF909F908F9074
:1044900008951092B8021092B70288EE93E0A0E05F
:1044A000B0E08093B9029093BA02A093BB02B0939C
:1044B000BC0281EB91E09093B6028093B5028FEF3E
:1044C0009FEF9093C2028093C10210925A041092FF
:1044D000590483EC91E090935804809357048CE343
:1044E00080935D0480E18093600410925F041092D9
:1044F0005E04109265041092660410926704109294
:1045000068041092690410926C0810926B08109263
:104510006E0810926D0881E080936F08109212036C
:1045200010921103109214031092130310921603A9
:104530001092150310921C0310921B03EFEAF3E094
:1045400011821082138212821482158216821782BF
:10455000389684E0EF34F80799F710929803109298
:10456000970310929A0310929903EBE9F3E08FEA14
:1045700093E0119211928E179F07D9F781E090E096
:10458000909306038093050310920803109207038B
:1045900010920E0310920D031092100310920F034D
:1045A000909354048093530410925604109255042F
:1045B0000895CF93DF93CDB7DEB728970FB6F89461
:1045C000DEBF0FBECDBF789484B5826084BD84B554
:1045D000816084BD85B5826085BD85B5816085BDFE
:1045E00080916E00816080936E00109281008091B6
:1045F000810082608093810080918100816080933E
:104600008100809180008160809380008091910082
:1046100082608093910080919100816080939100ED
:10462000809190008160809390008091C1008460AF
:104630008093C1008091C10082608093C10080910D
:10464000C10081608093C1008091C300816080932C
:10465000C3008091C00082608093C0008091C2003E
:1046600081608093C20080917A00846080937A0098
:1046700080917A00826080937A0080917A008160D4
:1046800080937A0080917A00806880937A001092FB
:10469000AD0210923902109238028091D7008160E9
:1046A0008093D70080EA8093D80089B5806189BD66
:1046B00089B5826089BD09B400FEFDCF61E070E07C
:1046C00080E090E00E94290B8091D8008F7C80616F
:1046D0008093D8008091E000807F8093E0008091FB
:1046E000E1008E7E8093E1008DE08093E200559A98
:1046F000209A1FB7F89480913A02811127C0E6ED05
:10470000FAE08491E9EAFAE09491E82FF0E0EE0F04
:10471000FF1FE95FF84FA591B491EC91E92321F4D3
:1047200061E081E10E94B40961E081E10E94250A13
:104730008CB580618CBD8CB580648CBD61E08FE0F0
:104740000E94250A61E080E10E94250A80913A02D8
:104750008F5F80933A021FBF02E217E0B801F801B1
:1047600084916F5F7F4F0E5F1F4FFB016491882321
:1047700019F00E94250AF2CF61E086E00E94B40998
:1047800061E070E080E090E00E94290B60E086E04C
:104790000E94B4096AE070E080E090E00E94290B7A
:1047A00061E086E00E94B409E1EDFAE0E491F0E016
:1047B000EE0FFF1FE954F54F8591949190934002BD
:1047C00080933F02E4EAFAE0E491E0933E02E9ECF0
:1047D000FAE0E491F0E0EE0FFF1FE954F54F859108
:1047E000949190933D0280933C02ECE9FAE0E491CD
:1047F000E0933B028CB58C7F8CBD8DB581608DBD07
:10480000E0913F02F0914002908180913E02982B0E
:104810009083A0913C02B0913D022C9190913B027B
:10482000909592239C939081809589238083E5E1E4
:10483000F7E082E297E08E179F0749F024912EBDA2
:1048400000000DB407FEFDCF2EB53196F4CFE091F8
:104850003C02F0913D02808190913B02892B808344
:10486000E0913F02F0914002908180913E0280955C
:1048700089238083809164008160809364008091AB
:1048800064008260809364008091640080688093FB
:10489000640080916400806480936400809165006E
:1048A0008160809365000E94E00B87FF1AC080E062
:1048B00094E01EBC00000DB407FEFDCF2EB501979D
:1048C000C1F770E060E08AE00E94610A70E060E099
:1048D0008BE00E94610A70E060E089E00E94610A5A
:1048E000FFCF85E00E948E0C8DE00E948E0C10920E
:1048F000AE0282E090E00E94C72D81110E94720DED
:10490000809164008E7F8093640087EC80937C00AC
:1049100080E280937B0062E070E080E090E00E94A3
:10492000290B80917A00806480937A0080917A00CC
:1049300086FDFCCF009178001091790000951095CC
:104940008EE580937C0062E070E080E090E00E9461
:10495000290B80917A00806480937A0080917A009C
:1049600086FDFCCFE0907800F09079000E94040B67
:10497000E094F094E09ED001E19EB00DF09EB00D69
:1049800011249B01AC0120953095409550950E94D3
:10499000EE2D6B017C010E94040B6C0D7D1D8E1DA4
:1049A0009F1D611571058105910511F00E94BE2DB5
:1049B000809164008160809364008CE380935D0447
:1049C00080E1809360048FEF9FEF9093C202809309
:1049D000C102B2E24B2E512C10E3212E312C2FB705
:1049E000F8948091410290914202A0914302B091CB
:1049F00044022FBF20916904222391F02091610489
:104A0000F82FF21BF0936A0420915E0430915F044A
:104A10002F5F3F4F30935F0420935E041092690430
:104A20004091650450916604609167047091680438
:104A300084179507A607B707ACF4481B423050F01F
:104A400083B7817F83BF83B7816083BF889583B736
:104A50008E7F83BF80E090E0892B09F4C0CF0E9455
:104A60000000B7CF20916004AC01BD01420F511D81
:104A7000611D711D40936504509366046093670443
:104A8000709368048093610490936204A09363041C
:104A9000B093640481E08093690480E02BE634E005
:104AA000B82FB111BFEFF9010024B193B193B193C5
:104AB000B1930394D1F7809105039091060384305C
:104AC000910509F449C18530910589F0029709F0F3
:104AD000FAC00E94E00B85FFB2C08091550490910E
:104AE0005604009709F494C0019709F496C00E94F7
:104AF000E00B83FFE4C083E090E090930603809393
:104B0000050310920803109207030CE512E0ACEACB
:104B1000EA2EA2E0FA2E0E946F2D23E130E040E061
:104B200050E00E94CF2DD80111966C930E946F2DFA
:104B300020E430E040E050E00E94CF2DF3E0660F2B
:104B4000771FFA95E1F7F801738362830E946F2D56
:104B500024E030E040E050E00E94CF2D6E5FD801AD
:104B60006C930C5F1F4FE016F106A9F683E090E00E
:104B700090930A038093090301E010E010930C0363
:104B800000930B031092100310920F0381E090E04A
:104B90000E94B411109316030093150380E099E26C
:104BA000909312038093110380E099E39093140390
:104BB0008093130380911B0390911C03009731F0A5
:104BC0000E943A3110921C0310921B038FE090E078
:104BD00090931A03809319038091AF02882379F090
:104BE00084E699E0909348028093470290934602AE
:104BF000809345020E94FF0C81E08093AE021092E8
:104C0000500410924F0410925204109251045BC051
:104C100010925404109253046ACF8091AF028823FB
:104C200009F465CF1092AF02809164008860809390
:104C300064008091650088608093650058CF0E9471
:104C4000E00B209155043091560486FF15C02115C4
:104C5000310559F02130310509F049CF8091AF027B
:104C6000811145CF0E94720D42CF81E090E0909378
:104C70005404809353043BCF1216130674F40E941D
:104C8000E00B87FF0AC0809155049091560401976C
:104C900090935604809355042ACF809155049091A7
:104CA0005604181619060CF422CF0E94E00B84FF5C
:104CB0001ECF80915504909156040196E9CF0E9431
:104CC000E00B82FD18CF80910703909108030196B5
:104CD0009093080380930703209105033091060306
:104CE0002330310509F4C4C008F0A4C021303105D7
:104CF00009F4AFC0809105039091060383309105BC
:104D000009F424C608F0FEC48130910509F444C5B5
:104D1000029709F489C585EB92E00E94580997FD36
:104D200008C040E054E06BE674E085EB92E00E943E
:104D30005B0B80916B048EBDECE6F4E081910DB4C9
:104D400007FEFDCF8EBDABE6B8E0AE17BF07B1F7EB
:104D50000DB407FEFDCF7ECE809115039091160312
:104D600081309105B9F0029709F0ADCF0E94E00BB8
:104D700085FF50C080911103909112038F3F9105E0
:104D800009F00CF4A0CF8C549109909312038093F6
:104D9000110399CF8091190390911A0318161906DF
:104DA0002CF30E94E00B83FF30C082E090E09093F0
:104DB00016038093150380911B0390911C03892B8C
:104DC000A9F6009111031091120317FF02C00150C0
:104DD0001F4F012F110F110B0E5F1F4FE090130398
:104DE000F0901403F7FE03C0BFEFEB0EF11C84E05C
:104DF00090E00E949E30FC01108201831282F382B7
:104E000090931C0380931B03B1CF0E94E00B82FDA3
:104E1000CCCFACCF0E94E00B86FF55CF8091110321
:104E2000909112038115E3E59E070CF04CCF845B53
:104E30009F4FABCF2430310581F12530310509F08A
:104E400059CF30E020E050E040E060E00E948B135A
:104E500051CF883791050CF49FC482E090E0909385
:104E6000060380930503109208031092070342CFB4
:104E70008C32F1E09F072CF32091090330910A0353
:104E80002150310930930A032093090324E030E0D4
:104E90003093060320930503D4CF20911303309160
:104EA000140337FF02C021503F4FA32FAA0FAA0BB4
:104EB000232F409111035091120357FF02C041501C
:104EC0005F4F752F770F770B452FE0911503F0910A
:104ED0001603319761E0329708F060E03A2F572FC0
:104EE0000E948B1360904F04709050046114710401
:104EF00009F033C3A0911B03B0911C03109709F470
:104F00008DC08D919C91119797FF02C081509F4F4A
:104F1000E92FF92FFF0FFF0B12968D919C9197FFB0
:104F200002C081509F4F292F392F330F330B00912F
:104F30001F0310912003C901801B910B65E070E0F5
:104F40000E9470306B01809053049090540465303F
:104F5000710570F5E0901D03F0901E03CF018E19CE
:104F60009F0966E070E00E9470305B016AE0A6165F
:104F7000B104F0F445E04C9DC0014D9D900D11240D
:104F8000080F191FC801029666E06A9DA0016B9D7B
:104F9000500D1124E40EF51EA7014E5F5F4F8114E2
:104FA000910409F436C1A1E08A16910409F4E4C120
:104FB0004BE953E0DA01CD90DD90AD01C114D1048D
:104FC00031F1D60112968D919C9197FF02C08150CC
:104FD0009F4F092F192F110F110BC8010196D601F0
:104FE00014966D917C9177FF02C061507F4FE72E40
:104FF000F72EFF0CFF08B7016F5F7F4F81149104FC
:1050000009F4CAC1B1E08B16910409F45AC26FEFDA
:10501000661A760A8AE06816710461F680911503B3
:10502000909116030197029708F06CC080911303CA
:105030009091140397FF02C081509F4F492F592F21
:10504000550F550B809111039091120397FF02C0E9
:1050500081509F4F292F392F330F330BAFEAB3E025
:1050600090E080E012966D917C91139777FF02C0DB
:1050700061507F4FE72FF72FFF0FFF0B1E161F0604
:105080000CF081C26D917C91119777FF02C0615045
:105090007F4F672F770F770B621B730B615071097E
:1050A0006330710508F06FC2E41BF50B329735973A
:1050B00008F069C2E3E0880F991FEA95E1F78B5F7A
:1050C0009C4FFC01E655FF4F1182108284559F4F83
:1050D000DC011D921C9283E090E090931603809374
:1050E00015031092180310921703809109039091F1
:1050F0000A03892B09F0C8C28CE390E09093520414
:1051000080935104009107031091080380911B03C1
:1051100090911C03009719F1FC01228133812058E2
:1051200031403383228321303F4FCCF4209115034B
:10513000309116032230310561F421E030E03093E4
:105140001603209315032FE030E030931A032093C9
:1051500019030E943A3110921C0310921B03809194
:10516000190390911A03181619062CF401979093BD
:105170001A038093190380911503909116030397E6
:1051800051F5C8018F709927892B89F480911703F5
:105190009091180301969093180380931703049736
:1051A00034F084E090E0909316038093150380918F
:1051B000AF02882381F08091AE0281110CC0037090
:1051C00011272AE0209FC001219F900D11248C59A6
:1051D0009F4F0E945D0780915104909152041816D0
:1051E00019060CF087CD01979093520480935104D7
:1051F000892B09F07FCD8091090390910A030097D4
:1052000009F056C285E090E0909306038093050371
:1052100071CD821B930B4E1B5F0B4F5F5F4F433073
:10522000510508F0C5CE0196039708F0C1CE8AE07B
:105230008C9DD0018D9DB00D1124AA0DBB1DAA0F10
:10524000BB1FA35FBC4F58968D919C9184309105F4
:1052500008F0AECE28E0EEE9F1E0DE011196019013
:105260000D922A95E1F7880F991FE1E0F0E0EC0F2D
:10527000FD1FE80FF91F8080918080919703909126
:105280009803009711F00E943A3185E090E00E9467
:105290009E30FC0114829093980380939703B1E0B1
:1052A000EB1AF108F182E0820150110913830283A5
:1052B0008091AF02882379F086ED98E090934802C0
:1052C0008093470290934602809345020E94FF0C10
:1052D00081E08093AE02B501C6010E940407181454
:1052E00019040CF09BCE80910F0390911003880E4F
:1052F000991E8816990608F429C19092100380928D
:105300000F0380910F039091100320910D033091B2
:105310000E032817390720F490930E0380930D0392
:1053200080911B0390911C03009731F00E943A3149
:1053300010921C0310921B03809115039091160389
:10534000029761F481E090E0909316038093150337
:1053500087E090E090931A038093190380918D0366
:1053600090918E03892B09F059CE84EB90E09093B5
:10537000500480934F0452CEE417F50709F018CE7D
:105380002817390709F453CFA9014F5F5F4F8417DE
:10539000950709F00DCE4BCFDF01A81BB90BCD014E
:1053A0000196059708F033CEC901861B970B01962D
:1053B000059708F02CCEF601828893888091970398
:1053C00090919803009711F00E943A3185E090E0A7
:1053D0000E949E30FC01148290939803809397035F
:1053E000C801019791838083C701019793838283CA
:1053F0006301FFE3CF0ED11CF601EE0FFF1FEB5F41
:10540000FC4F008CF18DE02D808191812091AF02C5
:10541000009709F06DC0222379F087E098E090931F
:1054200048028093470290934602809345020E946F
:10543000FF0C81E08093AE028091990390919A03D2
:10544000009711F00E943A3187E090E00E949E3070
:10545000FC0190939A0380939903025011091183E0
:105460000083F382E282148288E790E0968385834A
:10547000D601AA0FBB1FAB5FBC4F58960D90BC91D5
:10548000A02D52968D919C918431910539F581E042
:10549000848380EF90E09093240380932303F601AC
:1054A000EE0FFF1FEB5FFC4F008CF18DE02D66854A
:1054B0007785808991890E940407C3010E94781230
:1054C0000ECFDF01A81BB90B139708F0A0CDC901BF
:1054D000861B970B039708F09ACD6DCF8E319105FF
:1054E00011F482E0D5CF8035910599F683E0D0CFD5
:1054F0000197C9F484A195A197FD15C0880F991F44
:10550000FC01ED57FC4F008CF18DE02D309759F0E8
:1055100084A195A1019795A384A3892B21F480E50B
:1055200090E0938B828B222309F4B9CF86ED98E02B
:1055300090934802809347029093460280934502DD
:105540000E94FF0C81E08093AE02A9CF8FEF9FEF06
:105550009093100380930F03D4CE91E0691A7108E1
:105560007092500460924F04672809F057CD8091E3
:105570000B0390910C03019690930C0380930B0303
:105580000E94B4114BCD019618968431910509F013
:1055900069CDABE9B3E010E000E02F5F3F4F4D5F16
:1055A0005F4FED91FD91309709F471C08281938135
:1055B00097FF02C081509F4F892F990F990B821B33
:1055C000930B0396059708F062C08481958197FF3D
:1055D00002C081509F4F892F990F990B841B950B07
:1055E0000396059708F053C0E288F38866857785AF
:1055F000808991890E940407C8010E9478121E14B4
:105600001F040CF07FCD80910F0390911003E80EE2
:10561000F91EE816F90608F441C0F0921003E09272
:105620000F0380910F039091100320910D0330918F
:105630000E032817390720F490930E0380930D036F
:1056400083E090E090931603809315031092180363
:10565000109217038091090390910A03892B29F571
:105660008CE390E0909352048093510480918D03D9
:1056700090918E03892B09F045CD84EB90E09093B7
:10568000500480934F043ECD8CE291E037CD0F5F04
:105690001F4F0A30110509F084CF34CD8FEF9FEFF3
:1056A0009093100380930F03BCCF8CE291E0DACF8C
:1056B000019790930A038093090381E090E090930F
:1056C00016038093150380E099E290931203809370
:1056D000110380E099E39093140380931303809166
:1056E0001B0390911C03009731F00E943A311092F5
:1056F0001C0310921B038FE090E090931A03809399
:105700001903F8CA8430910509F433C1059709F0EB
:1057100002CB80910703909108030E94CF0D0E9455
:10572000491C50926C0840926B0850926E0840924F
:105730006D0884E192E00E943C1C8AE390E0909323
:105740006C0880936B0830926E0820926D088FE190
:1057500092E00E943C1C80910F039091100304E39F
:1057600010E0181619060CF0D6CA10936C080093B6
:105770006B0830926E0820926D086AE070E00E941B
:1057800070307B0160E3680F87E594E00E9482102F
:10579000C70106501109E5CF0091070310910803D6
:1057A0006EE170E00E3111057CF48EE190E0801B1B
:1057B000910B53E0880F991F5A95E1F76EE170E065
:1057C0000E947030625E7F4F2CE230E030936C08B4
:1057D00020936B0870936E0860936D088DEC91E0D8
:1057E0000E943C1C0E3111050CF095CA10E000E03F
:1057F00020E048E065E270E0C8010E94A40D0F5F60
:105800001F4F00381105A1F70AE210E021E045E240
:1058100050E0B80187E594E00E94800D0F5F1F4FB4
:105820000735110599F777CA00E120E447E857E00A
:1058300062E070E080E290E00E943E0680915504B4
:1058400090915604892BD9F440E2E42EF12C00E229
:1058500010E02DE130E04DE150E06AE170E080E2DF
:1058600090E00E941C0F0EE510E02DE130E041E6D3
:1058700050E06AE170E08EE590E00E941C0F88E243
:1058800090E090936C0880936B088AE190E090938D
:105890006E0880936D088091530490915404009792
:1058A00009F449C0019709F44BC0809155049091C7
:1058B00056040197D9F43CE2E32EF12C00E210E00B
:1058C00029E230E04DE150E066E270E080E290E0F5
:1058D0000E941C0F0EE510E029E230E041E650E0A6
:1058E00066E270E08EE590E00E941C0F85E290E099
:1058F00090936C0880936B0886E290E090936E081A
:1059000080936D088091AF028823E9F087EE91E0E3
:105910000E943C1C89E190E090936C0880936B0896
:1059200086E390E090936E0880936D088BEF91E092
:105930000E943C1CF0C985ED91E00E943C1CB5CF53
:105940008EED91E0FACF81EF91E0E2CF80910703F5
:10595000909108030E94CF0D0E94491C50926C0840
:1059600040926B0850926E0840926D0889E092E078
:10597000DFCF209111033091120337FF02C0215075
:105980003F4F832F932F990F990B20911303309141
:10599000140337FF02C021503F4F632F732F770F3F
:1059A000770B209115033091160322303105A1F1B8
:1059B00023303105B1F12130310539F407E025E01C
:1059C0004DE757E044960E943E06E0911B03F0919C
:1059D0001C033097C1F08281938197FF02C08150F0
:1059E0009F4F792F770F770B692F8081918197FFD8
:1059F00002C081509F4F892F990F990B21E043E0FE
:105A000044960E94A40D80910703909108030E9480
:105A1000CF0D0E94491C7FC907E025E042E857E00E
:105A2000D1CF2091170330911803E2E1E29FA0014A
:105A3000E39F500D11244B5C584F6150710909E0F0
:105A400029E04396C0CF8F929F92AF92BF92CF92A0
:105A5000DF92EF92FF92CF93DF93EC01688179811F
:105A60008A819B81611571058105910521F464E2AC
:105A700079ED8BE597E02DE133EF41E050E00E94B6
:105A8000CF2D49015A019B01AC01A7EAB1E40E9464
:105A9000EE2D6B017C01ACEEB4EFA50194010E94E8
:105AA000FC2DC60ED71EE81EF91EF7FE06C081E0CB
:105AB000C81AD108E10880E8F80AC882D982EA82C7
:105AC000FB82C701B6019F77DF91CF91FF90EF90E6
:105AD000DF90CF90BF90AF909F908F9008958F925E
